:0400000080312528FE
:100008007E1480312E00161E0A280B2813280C1E79
:100018000E280F2813288131EC21803123280B1F4B
:10002800162817282328961E1A281B2823288C1ED2
:100038001E281F28232881319721803123287E10EC
:10004800090080312728823113228031B0008231A3
:1000580014228031B100823115228031B200823100
:1000680016228031B300A001A101A201A301A401BD
:10007800A501A601A701A801A9017E1020008031D1
:1000880045288131B52180310D30F0000230F10072
:100098008231012280318B170B1781318321803106
:1000A800D930F0000130F1008131FB2180318231FB
:1000B800172280310130F8000030F900FC01FD0101
:1000C80078087904031969286A28B72820002008C5
:1000D8002402F4002108253BF5002208263BF600FF
:1000E8002308273BF70033087702031D85283208C9
:1000F8007602031D852831087502031D85283008FE
:100108007402031C88288928B7287D08F1007C0818
:10011800F0000030F200F3008031E12080317C08EB
:10012800013EF40000307D3DF50003307405FC000D
:1001380000307505FD001530F5004B30F400BE3079
:10014800890BA428F40BA428F50BA42800328131CC
:10015800F521803120002708A3002608A2002508E1
:10016800A1002408A0002000280829040319BD289C
:10017800BE286428773030061B3003193106320454
:1001880033040319C828C928CE287730FA001B3051
:10019800FB00D2280A30FA000030FB007A08200061
:1001A800B0007B08B100890D893B8909B200B30012
:1001B800A801A90164288031252872087304031D49
:1001C800E628E72813290029200017159711171684
:1001D80097124529200017119715171697124529C8
:1001E8002000171197151712971645292000171583
:1001F80097111712971645297108003A031905290E
:1002080045297008003A0319E828013A0319EE282D
:10021800033A0319F428013A0319FA284529720305
:100228007304031D18291929452932292000171597
:1002380097111712971645292000171197151712AD
:100248009716452920001711971517169712452953
:100258002000171597111716971245297108003AAB
:100268000319372945297008003A03191A29013A50
:1002780003192029033A03192629013A03192C29BD
:10028800452908002000960197019801FF30910048
:10029800C3309200FF309300DF303E00B800C33017
:1002A800C300FF30CE00B901C401CF01E501BA0196
:1002B800C501D001FF30BB00FF30C600FF30D100C0
:1002C800FF30BC00FF30C700FF30D2000830E80024
:1002D800BD012030BE00BF01C801C901CA01D30158
:1002E800D401D501E901EA01EB011B30F00002302D
:1002F800F1008231012281312E0016160800F930F2
:1003080020009D009C0177309F001A30F0000230D9
:10031800F1008131FB2181312E008C12961680303C
:1003280020009E0008002E008C1220002A082B04B2
:1003380003199F29A029A5292B088A002A080A0041
:100348008131080020002E082F040319AC29AD299B
:10035800B2292F088A002E080A0081313E00BF12F8
:1003680008008131E3218131813146218131813198
:10037800832181318131CE218131080083340134D8
:10038800173402340034003400340034FB340134B0
:10039800003400342E000C100B140030F000003034
:1003A800F100823107228131080001302000A407C2
:1003B8000030A53D0030A63D0030A73D0800603064
:1003C80031008D008F0191010630930092010800E1
:1003D8003E00BF1EF029F129F4298131A62181317F
:1003E80008002000171197111712971208007108BA
:1003F8002000AB007008AA00080071082000AF00B8
:100408007008AE00080071082000AD007008AC004C
:10041800080001302000A8000030A9000800773447
:100428001B340034003420009E1708000800080020
:020000040001F9
:0A000E008F3FFF3F9F3FFF3FFF3F82
:00000001FF
